{
  "_format": "hh-sol-artifact-1",
  "contractName": "FriendManager",
  "sourceName": "contracts/Contract.sol",
  "abi": [
    {
      "anonymous": false,
      "inputs": [
        {
          "indexed": true,
          "internalType": "address",
          "name": "from",
          "type": "address"
        },
        {
          "indexed": true,
          "internalType": "address",
          "name": "to",
          "type": "address"
        }
      ],
      "name": "FriendAccepted",
      "type": "event"
    },
    {
      "anonymous": false,
      "inputs": [
        {
          "indexed": true,
          "internalType": "address",
          "name": "from",
          "type": "address"
        },
        {
          "indexed": true,
          "internalType": "address",
          "name": "to",
          "type": "address"
        }
      ],
      "name": "FriendCancelled",
      "type": "event"
    },
    {
      "anonymous": false,
      "inputs": [
        {
          "indexed": true,
          "internalType": "address",
          "name": "from",
          "type": "address"
        },
        {
          "indexed": true,
          "internalType": "address",
          "name": "to",
          "type": "address"
        }
      ],
      "name": "FriendRejected",
      "type": "event"
    },
    {
      "anonymous": false,
      "inputs": [
        {
          "indexed": true,
          "internalType": "address",
          "name": "by",
          "type": "address"
        },
        {
          "indexed": true,
          "internalType": "address",
          "name": "who",
          "type": "address"
        }
      ],
      "name": "FriendRemoved",
      "type": "event"
    },
    {
      "anonymous": false,
      "inputs": [
        {
          "indexed": true,
          "internalType": "address",
          "name": "from",
          "type": "address"
        },
        {
          "indexed": true,
          "internalType": "address",
          "name": "to",
          "type": "address"
        }
      ],
      "name": "FriendRequested",
      "type": "event"
    },
    {
      "inputs": [
        {
          "internalType": "address",
          "name": "requester",
          "type": "address"
        }
      ],
      "name": "acceptRequest",
      "outputs": [],
      "stateMutability": "nonpayable",
      "type": "function"
    },
    {
      "inputs": [
        {
          "internalType": "address",
          "name": "a",
          "type": "address"
        },
        {
          "internalType": "address",
          "name": "b",
          "type": "address"
        }
      ],
      "name": "areFriends",
      "outputs": [
        {
          "internalType": "bool",
          "name": "",
          "type": "bool"
        }
      ],
      "stateMutability": "view",
      "type": "function"
    },
    {
      "inputs": [
        {
          "internalType": "address",
          "name": "to",
          "type": "address"
        }
      ],
      "name": "cancelRequest",
      "outputs": [],
      "stateMutability": "nonpayable",
      "type": "function"
    },
    {
      "inputs": [
        {
          "internalType": "address",
          "name": "",
          "type": "address"
        },
        {
          "internalType": "address",
          "name": "",
          "type": "address"
        }
      ],
      "name": "friends",
      "outputs": [
        {
          "internalType": "bool",
          "name": "",
          "type": "bool"
        }
      ],
      "stateMutability": "view",
      "type": "function"
    },
    {
      "inputs": [
        {
          "internalType": "address",
          "name": "user",
          "type": "address"
        }
      ],
      "name": "friendsCount",
      "outputs": [
        {
          "internalType": "uint256",
          "name": "",
          "type": "uint256"
        }
      ],
      "stateMutability": "view",
      "type": "function"
    },
    {
      "inputs": [
        {
          "internalType": "address",
          "name": "user",
          "type": "address"
        }
      ],
      "name": "getFriends",
      "outputs": [
        {
          "internalType": "address[]",
          "name": "",
          "type": "address[]"
        }
      ],
      "stateMutability": "view",
      "type": "function"
    },
    {
      "inputs": [
        {
          "internalType": "address",
          "name": "user",
          "type": "address"
        }
      ],
      "name": "getPendingReceived",
      "outputs": [
        {
          "internalType": "address[]",
          "name": "",
          "type": "address[]"
        }
      ],
      "stateMutability": "view",
      "type": "function"
    },
    {
      "inputs": [
        {
          "internalType": "address",
          "name": "user",
          "type": "address"
        }
      ],
      "name": "getPendingSent",
      "outputs": [
        {
          "internalType": "address[]",
          "name": "",
          "type": "address[]"
        }
      ],
      "stateMutability": "view",
      "type": "function"
    },
    {
      "inputs": [
        {
          "internalType": "address",
          "name": "user",
          "type": "address"
        }
      ],
      "name": "pendingRecvCount",
      "outputs": [
        {
          "internalType": "uint256",
          "name": "",
          "type": "uint256"
        }
      ],
      "stateMutability": "view",
      "type": "function"
    },
    {
      "inputs": [
        {
          "internalType": "address",
          "name": "",
          "type": "address"
        },
        {
          "internalType": "address",
          "name": "",
          "type": "address"
        }
      ],
      "name": "pendingRequest",
      "outputs": [
        {
          "internalType": "bool",
          "name": "",
          "type": "bool"
        }
      ],
      "stateMutability": "view",
      "type": "function"
    },
    {
      "inputs": [
        {
          "internalType": "address",
          "name": "user",
          "type": "address"
        }
      ],
      "name": "pendingSentCount",
      "outputs": [
        {
          "internalType": "uint256",
          "name": "",
          "type": "uint256"
        }
      ],
      "stateMutability": "view",
      "type": "function"
    },
    {
      "inputs": [
        {
          "internalType": "address",
          "name": "from",
          "type": "address"
        }
      ],
      "name": "rejectRequest",
      "outputs": [],
      "stateMutability": "nonpayable",
      "type": "function"
    },
    {
      "inputs": [
        {
          "internalType": "address",
          "name": "who",
          "type": "address"
        }
      ],
      "name": "removeFriend",
      "outputs": [],
      "stateMutability": "nonpayable",
      "type": "function"
    },
    {
      "inputs": [
        {
          "internalType": "address",
          "name": "to",
          "type": "address"
        }
      ],
      "name": "requestFriend",
      "outputs": [],
      "stateMutability": "nonpayable",
      "type": "function"
    }
  ],
  "bytecode": "0x608060405234801561001057600080fd5b5060016000819055506122da806100286000396000f3fe608060405234801561001057600080fd5b50600436106100ea5760003560e01c806394e1a6871161008c578063cbdfcae511610066578063cbdfcae51461027f578063d11666531461029b578063e0029a7b146102cb578063e35baf8a146102fb576100ea565b806394e1a68714610217578063af98f75714610247578063ca07b4b414610263576100ea565b80636704503a116100c85780636704503a1461016b578063752db2111461019b57806380cee8a5146101cb5780638110a800146101e7576100ea565b80630d853048146100ef5780632b8cc3461461011f5780635cbb7caa1461013b575b600080fd5b61010960048036038101906101049190611cb0565b61032b565b6040516101169190611d9b565b60405180910390f35b61013960048036038101906101349190611cb0565b61048c565b005b61015560048036038101906101509190611cb0565b6108cd565b6040516101629190611d9b565b60405180910390f35b61018560048036038101906101809190611cb0565b610a2e565b6040516101929190611dd6565b60405180910390f35b6101b560048036038101906101b09190611cb0565b610a7e565b6040516101c29190611dd6565b60405180910390f35b6101e560048036038101906101e09190611cb0565b610ace565b005b61020160048036038101906101fc9190611df1565b610dd8565b60405161020e9190611e4c565b60405180910390f35b610231600480360381019061022c9190611cb0565b610e6c565b60405161023e9190611d9b565b60405180910390f35b610261600480360381019061025c9190611cb0565b610fcd565b005b61027d60048036038101906102789190611cb0565b611242565b005b61029960048036038101906102949190611cb0565b6114b7565b005b6102b560048036038101906102b09190611df1565b6118d4565b6040516102c29190611e4c565b60405180910390f35b6102e560048036038101906102e09190611df1565b611903565b6040516102f29190611e4c565b60405180910390f35b61031560048036038101906103109190611cb0565b611932565b6040516103229190611dd6565b60405180910390f35b60606000610376600460008573ffffffffffffffffffffffffffffffffffffffff1673ffffffffffffffffffffffffffffffffffffffff168152602001908152602001600020611982565b905060008167ffffffffffffffff81111561039457610393611e67565b5b6040519080825280602002602001820160405280156103c25781602001602082028036833780820191505090505b50905060005b828110156104815761042181600460008873ffffffffffffffffffffffffffffffffffffffff1673ffffffffffffffffffffffffffffffffffffffff16815260200190815260200160002061199790919063ffffffff16565b82828151811061043457610433611e96565b5b602002602001019073ffffffffffffffffffffffffffffffffffffffff16908173ffffffffffffffffffffffffffffffffffffffff1681525050808061047990611ef4565b9150506103c8565b508092505050919050565b6104946119b1565b6000339050600260008373ffffffffffffffffffffffffffffffffffffffff1673ffffffffffffffffffffffffffffffffffffffff16815260200190815260200160002060008273ffffffffffffffffffffffffffffffffffffffff1673ffffffffffffffffffffffffffffffffffffffff16815260200190815260200160002060009054906101000a900460ff16610562576040517f08c379a000000000000000000000000000000000000000000000000000000000815260040161055990611f99565b60405180910390fd5b6000600260008473ffffffffffffffffffffffffffffffffffffffff1673ffffffffffffffffffffffffffffffffffffffff16815260200190815260200160002060008373ffffffffffffffffffffffffffffffffffffffff1673ffffffffffffffffffffffffffffffffffffffff16815260200190815260200160002060006101000a81548160ff02191690831515021790555061064881600460008573ffffffffffffffffffffffffffffffffffffffff1673ffffffffffffffffffffffffffffffffffffffff168152602001908152602001600020611a0090919063ffffffff16565b5061069a82600560008473ffffffffffffffffffffffffffffffffffffffff1673ffffffffffffffffffffffffffffffffffffffff168152602001908152602001600020611a0090919063ffffffff16565b5060018060008473ffffffffffffffffffffffffffffffffffffffff1673ffffffffffffffffffffffffffffffffffffffff16815260200190815260200160002060008373ffffffffffffffffffffffffffffffffffffffff1673ffffffffffffffffffffffffffffffffffffffff16815260200190815260200160002060006101000a81548160ff02191690831515021790555060018060008373ffffffffffffffffffffffffffffffffffffffff1673ffffffffffffffffffffffffffffffffffffffff16815260200190815260200160002060008473ffffffffffffffffffffffffffffffffffffffff1673ffffffffffffffffffffffffffffffffffffffff16815260200190815260200160002060006101000a81548160ff02191690831515021790555061081481600360008573ffffffffffffffffffffffffffffffffffffffff1673ffffffffffffffffffffffffffffffffffffffff168152602001908152602001600020611a3090919063ffffffff16565b5061086682600360008473ffffffffffffffffffffffffffffffffffffffff1673ffffffffffffffffffffffffffffffffffffffff168152602001908152602001600020611a3090919063ffffffff16565b508073ffffffffffffffffffffffffffffffffffffffff168273ffffffffffffffffffffffffffffffffffffffff167f41b50bfb1396de2b0d62efeb600a2ba4ec6343e04be4af93bc57de26b4fcd96360405160405180910390a3506108ca611a60565b50565b60606000610918600360008573ffffffffffffffffffffffffffffffffffffffff1673ffffffffffffffffffffffffffffffffffffffff168152602001908152602001600020611982565b905060008167ffffffffffffffff81111561093657610935611e67565b5b6040519080825280602002602001820160405280156109645781602001602082028036833780820191505090505b50905060005b82811015610a23576109c381600360008873ffffffffffffffffffffffffffffffffffffffff1673ffffffffffffffffffffffffffffffffffffffff16815260200190815260200160002061199790919063ffffffff16565b8282815181106109d6576109d5611e96565b5b602002602001019073ffffffffffffffffffffffffffffffffffffffff16908173ffffffffffffffffffffffffffffffffffffffff16815250508080610a1b90611ef4565b91505061096a565b508092505050919050565b6000610a77600360008473ffffffffffffffffffffffffffffffffffffffff1673ffffffffffffffffffffffffffffffffffffffff168152602001908152602001600020611982565b9050919050565b6000610ac7600560008473ffffffffffffffffffffffffffffffffffffffff1673ffffffffffffffffffffffffffffffffffffffff168152602001908152602001600020611982565b9050919050565b610ad66119b1565b6000339050600160008273ffffffffffffffffffffffffffffffffffffffff1673ffffffffffffffffffffffffffffffffffffffff16815260200190815260200160002060008373ffffffffffffffffffffffffffffffffffffffff1673ffffffffffffffffffffffffffffffffffffffff16815260200190815260200160002060009054906101000a900460ff16610ba4576040517f08c379a0000000000000000000000000000000000000000000000000000000008152600401610b9b90612005565b60405180910390fd5b6000600160008373ffffffffffffffffffffffffffffffffffffffff1673ffffffffffffffffffffffffffffffffffffffff16815260200190815260200160002060008473ffffffffffffffffffffffffffffffffffffffff1673ffffffffffffffffffffffffffffffffffffffff16815260200190815260200160002060006101000a81548160ff0219169083151502179055506000600160008473ffffffffffffffffffffffffffffffffffffffff1673ffffffffffffffffffffffffffffffffffffffff16815260200190815260200160002060008373ffffffffffffffffffffffffffffffffffffffff1673ffffffffffffffffffffffffffffffffffffffff16815260200190815260200160002060006101000a81548160ff021916908315150217905550610d1f82600360008473ffffffffffffffffffffffffffffffffffffffff1673ffffffffffffffffffffffffffffffffffffffff168152602001908152602001600020611a0090919063ffffffff16565b50610d7181600360008573ffffffffffffffffffffffffffffffffffffffff1673ffffffffffffffffffffffffffffffffffffffff168152602001908152602001600020611a0090919063ffffffff16565b508173ffffffffffffffffffffffffffffffffffffffff168173ffffffffffffffffffffffffffffffffffffffff167fa8e30f48064c886d284e961fb10cf21ed57c5f0b0b414f6bc390008552a15f9060405160405180910390a350610dd5611a60565b50565b6000600160008473ffffffffffffffffffffffffffffffffffffffff1673ffffffffffffffffffffffffffffffffffffffff16815260200190815260200160002060008373ffffffffffffffffffffffffffffffffffffffff1673ffffffffffffffffffffffffffffffffffffffff16815260200190815260200160002060009054906101000a900460ff16905092915050565b60606000610eb7600560008573ffffffffffffffffffffffffffffffffffffffff1673ffffffffffffffffffffffffffffffffffffffff168152602001908152602001600020611982565b905060008167ffffffffffffffff811115610ed557610ed4611e67565b5b604051908082528060200260200182016040528015610f035781602001602082028036833780820191505090505b50905060005b82811015610fc257610f6281600560008873ffffffffffffffffffffffffffffffffffffffff1673ffffffffffffffffffffffffffffffffffffffff16815260200190815260200160002061199790919063ffffffff16565b828281518110610f7557610f74611e96565b5b602002602001019073ffffffffffffffffffffffffffffffffffffffff16908173ffffffffffffffffffffffffffffffffffffffff16815250508080610fba90611ef4565b915050610f09565b508092505050919050565b610fd56119b1565b6000339050600260008273ffffffffffffffffffffffffffffffffffffffff1673ffffffffffffffffffffffffffffffffffffffff16815260200190815260200160002060008373ffffffffffffffffffffffffffffffffffffffff1673ffffffffffffffffffffffffffffffffffffffff16815260200190815260200160002060009054906101000a900460ff166110a3576040517f08c379a000000000000000000000000000000000000000000000000000000000815260040161109a90611f99565b60405180910390fd5b6000600260008373ffffffffffffffffffffffffffffffffffffffff1673ffffffffffffffffffffffffffffffffffffffff16815260200190815260200160002060008473ffffffffffffffffffffffffffffffffffffffff1673ffffffffffffffffffffffffffffffffffffffff16815260200190815260200160002060006101000a81548160ff02191690831515021790555061118982600460008473ffffffffffffffffffffffffffffffffffffffff1673ffffffffffffffffffffffffffffffffffffffff168152602001908152602001600020611a0090919063ffffffff16565b506111db81600560008573ffffffffffffffffffffffffffffffffffffffff1673ffffffffffffffffffffffffffffffffffffffff168152602001908152602001600020611a0090919063ffffffff16565b508173ffffffffffffffffffffffffffffffffffffffff168173ffffffffffffffffffffffffffffffffffffffff167f47feca4560a0d14ed650955b1b79fdd97b451c5aa8eb019ed5c9e73814d315a460405160405180910390a35061123f611a60565b50565b61124a6119b1565b6000339050600260008373ffffffffffffffffffffffffffffffffffffffff1673ffffffffffffffffffffffffffffffffffffffff16815260200190815260200160002060008273ffffffffffffffffffffffffffffffffffffffff1673ffffffffffffffffffffffffffffffffffffffff16815260200190815260200160002060009054906101000a900460ff16611318576040517f08c379a000000000000000000000000000000000000000000000000000000000815260040161130f90611f99565b60405180910390fd5b6000600260008473ffffffffffffffffffffffffffffffffffffffff1673ffffffffffffffffffffffffffffffffffffffff16815260200190815260200160002060008373ffffffffffffffffffffffffffffffffffffffff1673ffffffffffffffffffffffffffffffffffffffff16815260200190815260200160002060006101000a81548160ff0219169083151502179055506113fe81600460008573ffffffffffffffffffffffffffffffffffffffff1673ffffffffffffffffffffffffffffffffffffffff168152602001908152602001600020611a0090919063ffffffff16565b5061145082600560008473ffffffffffffffffffffffffffffffffffffffff1673ffffffffffffffffffffffffffffffffffffffff168152602001908152602001600020611a0090919063ffffffff16565b508073ffffffffffffffffffffffffffffffffffffffff168273ffffffffffffffffffffffffffffffffffffffff167f87521a1fad6e202a5c7cd3ce83f7e28b2f11e3fc4f23dbc62ee2a77de4d7917460405160405180910390a3506114b4611a60565b50565b6114bf6119b1565b6000339050600073ffffffffffffffffffffffffffffffffffffffff168273ffffffffffffffffffffffffffffffffffffffff1603611533576040517f08c379a000000000000000000000000000000000000000000000000000000000815260040161152a90612071565b60405180910390fd5b8073ffffffffffffffffffffffffffffffffffffffff168273ffffffffffffffffffffffffffffffffffffffff16036115a1576040517f08c379a0000000000000000000000000000000000000000000000000000000008152600401611598906120dd565b60405180910390fd5b600160008273ffffffffffffffffffffffffffffffffffffffff1673ffffffffffffffffffffffffffffffffffffffff16815260200190815260200160002060008373ffffffffffffffffffffffffffffffffffffffff1673ffffffffffffffffffffffffffffffffffffffff16815260200190815260200160002060009054906101000a900460ff161561166b576040517f08c379a000000000000000000000000000000000000000000000000000000000815260040161166290612149565b60405180910390fd5b600260008273ffffffffffffffffffffffffffffffffffffffff1673ffffffffffffffffffffffffffffffffffffffff16815260200190815260200160002060008373ffffffffffffffffffffffffffffffffffffffff1673ffffffffffffffffffffffffffffffffffffffff16815260200190815260200160002060009054906101000a900460ff1615611735576040517f08c379a000000000000000000000000000000000000000000000000000000000815260040161172c906121b5565b60405180910390fd5b6001600260008373ffffffffffffffffffffffffffffffffffffffff1673ffffffffffffffffffffffffffffffffffffffff16815260200190815260200160002060008473ffffffffffffffffffffffffffffffffffffffff1673ffffffffffffffffffffffffffffffffffffffff16815260200190815260200160002060006101000a81548160ff02191690831515021790555061181b82600460008473ffffffffffffffffffffffffffffffffffffffff1673ffffffffffffffffffffffffffffffffffffffff168152602001908152602001600020611a3090919063ffffffff16565b5061186d81600560008573ffffffffffffffffffffffffffffffffffffffff1673ffffffffffffffffffffffffffffffffffffffff168152602001908152602001600020611a3090919063ffffffff16565b508173ffffffffffffffffffffffffffffffffffffffff168173ffffffffffffffffffffffffffffffffffffffff167faf2a725aaf2a562205ec1d0984f94e07fddc219bfcecc08d929d043cde495afc60405160405180910390a3506118d1611a60565b50565b60016020528160005260406000206020528060005260406000206000915091509054906101000a900460ff1681565b60026020528160005260406000206020528060005260406000206000915091509054906101000a900460ff1681565b600061197b600460008473ffffffffffffffffffffffffffffffffffffffff1673ffffffffffffffffffffffffffffffffffffffff168152602001908152602001600020611982565b9050919050565b600061199082600001611a6a565b9050919050565b60006119a68360000183611a7b565b60001c905092915050565b6002600054036119f6576040517f08c379a00000000000000000000000000000000000000000000000000000000081526004016119ed90612221565b60405180910390fd5b6002600081905550565b6000611a28836000018373ffffffffffffffffffffffffffffffffffffffff1660001b611aa6565b905092915050565b6000611a58836000018373ffffffffffffffffffffffffffffffffffffffff1660001b611bba565b905092915050565b6001600081905550565b600081600001805490509050919050565b6000826000018281548110611a9357611a92611e96565b5b9060005260206000200154905092915050565b60008083600101600084815260200190815260200160002054905060008114611bae576000600182611ad89190612241565b9050600060018660000180549050611af09190612241565b9050818114611b5f576000866000018281548110611b1157611b10611e96565b5b9060005260206000200154905080876000018481548110611b3557611b34611e96565b5b90600052602060002001819055508387600101600083815260200190815260200160002081905550505b85600001805480611b7357611b72612275565b5b600190038181906000526020600020016000905590558560010160008681526020019081526020016000206000905560019350505050611bb4565b60009150505b92915050565b6000611bc68383611c2a565b611c1f578260000182908060018154018082558091505060019003906000526020600020016000909190919091505582600001805490508360010160008481526020019081526020016000208190555060019050611c24565b600090505b92915050565b600080836001016000848152602001908152602001600020541415905092915050565b600080fd5b600073ffffffffffffffffffffffffffffffffffffffff82169050919050565b6000611c7d82611c52565b9050919050565b611c8d81611c72565b8114611c9857600080fd5b50565b600081359050611caa81611c84565b92915050565b600060208284031215611cc657611cc5611c4d565b5b6000611cd484828501611c9b565b91505092915050565b600081519050919050565b600082825260208201905092915050565b6000819050602082019050919050565b611d1281611c72565b82525050565b6000611d248383611d09565b60208301905092915050565b6000602082019050919050565b6000611d4882611cdd565b611d528185611ce8565b9350611d5d83611cf9565b8060005b83811015611d8e578151611d758882611d18565b9750611d8083611d30565b925050600181019050611d61565b5085935050505092915050565b60006020820190508181036000830152611db58184611d3d565b905092915050565b6000819050919050565b611dd081611dbd565b82525050565b6000602082019050611deb6000830184611dc7565b92915050565b60008060408385031215611e0857611e07611c4d565b5b6000611e1685828601611c9b565b9250506020611e2785828601611c9b565b9150509250929050565b60008115159050919050565b611e4681611e31565b82525050565b6000602082019050611e616000830184611e3d565b92915050565b7f4e487b7100000000000000000000000000000000000000000000000000000000600052604160045260246000fd5b7f4e487b7100000000000000000000000000000000000000000000000000000000600052603260045260246000fd5b7f4e487b7100000000000000000000000000000000000000000000000000000000600052601160045260246000fd5b6000611eff82611dbd565b91507fffffffffffffffffffffffffffffffffffffffffffffffffffffffffffffffff8203611f3157611f30611ec5565b5b600182019050919050565b600082825260208201905092915050565b7f6e6f2070656e64696e6720726571756573740000000000000000000000000000600082015250565b6000611f83601283611f3c565b9150611f8e82611f4d565b602082019050919050565b60006020820190508181036000830152611fb281611f76565b9050919050565b7f6e6f7420667269656e6473000000000000000000000000000000000000000000600082015250565b6000611fef600b83611f3c565b9150611ffa82611fb9565b602082019050919050565b6000602082019050818103600083015261201e81611fe2565b9050919050565b7f7a65726f20616464726573730000000000000000000000000000000000000000600082015250565b600061205b600c83611f3c565b915061206682612025565b602082019050919050565b6000602082019050818103600083015261208a8161204e565b9050919050565b7f63616e6e6f7420726571756573742073656c6600000000000000000000000000600082015250565b60006120c7601383611f3c565b91506120d282612091565b602082019050919050565b600060208201905081810360008301526120f6816120ba565b9050919050565b7f616c726561647920667269656e64730000000000000000000000000000000000600082015250565b6000612133600f83611f3c565b915061213e826120fd565b602082019050919050565b6000602082019050818103600083015261216281612126565b9050919050565b7f7265717565737420657869737473000000000000000000000000000000000000600082015250565b600061219f600e83611f3c565b91506121aa82612169565b602082019050919050565b600060208201905081810360008301526121ce81612192565b9050919050565b7f5265656e7472616e637947756172643a207265656e7472616e742063616c6c00600082015250565b600061220b601f83611f3c565b9150612216826121d5565b602082019050919050565b6000602082019050818103600083015261223a816121fe565b9050919050565b600061224c82611dbd565b915061225783611dbd565b925082820390508181111561226f5761226e611ec5565b5b92915050565b7f4e487b7100000000000000000000000000000000000000000000000000000000600052603160045260246000fdfea2646970667358221220a83c0bfacb9608a21a5a83f1b08c26b90ec4cfa483f1b8aa29a435d038fa207f64736f6c63430008130033",
  "linkReferences": {},
  "deployedLinkReferences": {}
}